:020000040800F2
:100000000050002061210008A9210008A921000852
:10001000A9210008A9210008A9210008000000006A
:10002000000000000000000000000000211A00088D
:10003000A921000800000000511A0008A9210008A9
:10004000A9210008A9210008A9210008A921000868
:10005000A9210008A9210008A9210008A921000858
:10006000A9210008A9210008A9210008A921000848
:10007000A9210008A9210008A9210008A921000838
:10008000A9210008A9210008A9210008A921000828
:10009000A9210008A9210008A9210008A921000818
:1000A000A9210008A9210008A9210008A921000808
:1000B000A9210008A921000801200008A9210008A1
:1000C000A9210008A9210008A9210008A9210008E8
:1000D000A9210008A9210008A9210008A9210008D8
:1000E000A9210008A9210008A9210008000000009A
:1000F0000000000000000000000000000000000000
:0C01000000000000000000005FF808F1A3
:1001100010B5054C237833B9044B13B10448AFF341
:1001200000800123237010BD0C000020000000009F
:10013000F421000808B5034B1BB103490348AFF392
:10014000008008BD0000000010000020F42100081D
:1001500081F0004102E000BF83F0004330B54FEA78
:1001600041044FEA430594EA050F08BF90EA020FE5
:100170001FBF54EA000C55EA020C7FEA645C7FEA78
:10018000655C00F0E2804FEA5454D4EB5555B8BF9B
:100190006D420CDD2C4480EA020281EA030382EA0C
:1001A000000083EA010180EA020281EA0303362D9E
:1001B00088BF30BD11F0004F4FEA01314FF4801C71
:1001C0004CEA113102D0404261EB410113F0004F83
:1001D0004FEA03334CEA133302D0524263EB43033A
:1001E00094EA050F00F0A780A4F10104D5F1200ED8
:1001F0000DDB02FA0EFC22FA05F2801841F1000133
:1002000003FA0EF2801843FA05F359410EE0A5F106
:1002100020050EF1200E012A03FA0EFC28BF4CF037
:10022000020C43FA05F3C01851EBE37101F00045ED
:1002300007D54FF0000EDCF1000C7EEB00006EEBFA
:100240000101B1F5801F1BD3B1F5001F0CD3490884
:100250005FEA30004FEA3C0C04F101044FEA4452DB
:1002600012F5800F80F09A80BCF1004F08BF5FEA62
:10027000500C50F1000041EB045141EA050130BD42
:100280005FEA4C0C404141EB0101013C28BFB1F554
:10029000801FE9D291F0000F04BF01460020B1FA9F
:1002A00081F308BF2033A3F10B03B3F120020CDA72
:1002B0000C3208DD02F1140CC2F10C0201FA0CF050
:1002C00021FA02F10CE002F11402D8BFC2F1200CB5
:1002D00001FA02F120FA0CFCDCBF41EA0C0190406B
:1002E000E41AA2BF01EB0451294330BD6FEA0404B4
:1002F0001F3C1CDA0C340EDC04F11404C4F120029F
:1003000020FA04F001FA02F340EA030021FA04F3B0
:1003100045EA030130BDC4F10C04C4F1200220FA07
:1003200002F001FA04F340EA0300294630BD21FA45
:1003300004F0294630BD94F0000F83F4801306BF0B
:1003400081F480110134013D4EE77FEA645C18BFFF
:100350007FEA655C29D094EA050F08BF90EA020F96
:1003600005D054EA000C04BF1946104630BD91EA8E
:10037000030F1EBF0021002030BD5FEA545C05D191
:100380004000494128BF41F0004130BD14F58004D0
:100390003CBF01F5801130BD01F0004545F0FE4144
:1003A00041F470014FF0000030BD7FEA645C1ABF79
:1003B000194610467FEA655C1CBF0B46024650EAB0
:1003C000013406BF52EA033591EA030F41F40021DC
:1003D00030BD00BF90F0000F04BF0021704730B562
:1003E0004FF4806404F132044FF000054FF0000137
:1003F00050E700BF90F0000F04BF0021704730B5F8
:100400004FF4806404F1320410F0004548BF4042CC
:100410004FF000013EE700BF42004FEAE2014FEA21
:1004200031014FEA02701FBF12F07F4393F07F4FFC
:1004300081F06051704732F07F4208BF704793F0FF
:100440007F4F04BF41F40021704730B54FF4607412
:1004500001F0004521F000411CE700BF50EA010215
:1004600008BF704730B54FF000050AE050EA0102BE
:1004700008BF704730B511F0004502D5404261EB2E
:1004800041014FF4806404F132045FEA915C3FF46F
:10049000D8AE4FF003025FEADC0C18BF03325FEA0C
:1004A000DC0C18BF033202EBDC02C2F1200300FABD
:1004B00003FC20FA02F001FA03FE40EA0E0021FAE2
:1004C00002F11444BDE600BF70B54FF0FF0C4CF4D0
:1004D000E06C1CEA11541DBF1CEA135594EA0C0F82
:1004E00095EA0C0F00F0DEF82C4481EA030621EABD
:1004F0004C5123EA4C5350EA013518BF52EA0335F8
:1005000041F4801143F4801338D0A0FB02CE4FF0A9
:100510000005E1FB02E506F00042E0FB03E54FF0D9
:100520000006E1FB03569CF0000F18BF4EF0010ED1
:10053000A4F1FF04B6F5007F64F5407404D25FEACD
:100540004E0E6D4146EB060642EAC62141EA555180
:100550004FEAC52040EA5E504FEACE2EB4F1FD0CC2
:1005600088BFBCF5E06F1ED8BEF1004F08BF5FEA40
:10057000500E50F1000041EB045170BD06F00046F2
:1005800046EA010140EA020081EA0301B4EB5C049F
:10059000C2BFD4EB0C0541EA045170BD41F4801197
:1005A0004FF0000E013C00F3AB8014F1360FDEBFBC
:1005B000002001F0004170BDC4F10004203C35DA98
:1005C0000C341BDC04F11404C4F1200500FA05F31B
:1005D00020FA04F001FA05F240EA020001F00042BC
:1005E00021F0004110EBD37021FA04F642EB060132
:1005F0005EEA430E08BF20EAD37070BDC4F10C045C
:10060000C4F1200500FA04F320FA05F001FA04F21F
:1006100040EA020001F0004110EBD37041F100010B
:100620005EEA430E08BF20EAD37070BDC4F1200516
:1006300000FA05F24EEA020E20FA04F301FA05F27E
:1006400043EA020321FA04F001F0004121FA04F226
:1006500020EA020000EBD3705EEA430E08BF20EAF6
:10066000D37070BD94F0000F0FD101F00046400030
:1006700041EB010111F4801F08BF013CF7D041EAB2
:10068000060195F0000F18BF704703F000465200B6
:1006900043EB030313F4801F08BF013DF7D043EA87
:1006A0000603704794EA0C0F0CEA135518BF95EA3D
:1006B0000C0F0CD050EA410618BF52EA4306D1D1C4
:1006C00081EA030101F000414FF0000070BD50EAE3
:1006D000410606BF1046194652EA430619D094EA6D
:1006E0000C0F02D150EA013613D195EA0C0F05D157
:1006F00052EA03361CBF104619460AD181EA0301AB
:1007000001F0004141F0FE4141F470014FF0000062
:1007100070BD41F0FE4141F4780170BD70B54FF0FD
:10072000FF0C4CF4E06C1CEA11541DBF1CEA13557D
:1007300094EA0C0F95EA0C0F00F0A7F8A4EB05045F
:1007400081EA030E52EA03354FEA013100F0888056
:100750004FEA03334FF0805545EA131343EA12631F
:100760004FEA022245EA111545EA10654FEA0026D4
:100770000EF000419D4208BF964244F1FD0404F58D
:10078000407402D25B084FEA3202B61A65EB0305E9
:100790005B084FEA32024FF480104FF4002CB6EBA6
:1007A000020E75EB030E22BFB61A754640EA0C0026
:1007B0005B084FEA3202B6EB020E75EB030E22BF66
:1007C000B61A754640EA5C005B084FEA3202B6EBA7
:1007D000020E75EB030E22BFB61A754640EA9C0066
:1007E0005B084FEA3202B6EB020E75EB030E22BF36
:1007F000B61A754640EADC0055EA060E18D04FEAF4
:10080000051545EA16754FEA06164FEAC30343EA93
:1008100052734FEAC2025FEA1C1CC0D111F4801F60
:100820000BD141EA00014FF000004FF0004CB6E759
:1008300011F4801F04BF01430020B4F1FD0C88BFF8
:10084000BCF5E06F3FF6AFAEB5EB030C04BFB6EB03
:10085000020C5FEA500C50F1000041EB045170BDF6
:100860000EF0004E4EEA113114EB5C04C2BFD4EB23
:100870000C0541EA045170BD41F480114FF0000EA7
:10088000013C90E645EA060E8DE60CEA135594EA23
:100890000C0F08BF95EA0C0F3FF43BAF94EA0C0F26
:1008A0000AD150EA01347FF434AF95EA0C0F7FF49B
:1008B00025AF104619462CE795EA0C0F06D152EAEF
:1008C00003353FF4FDAE1046194622E750EA4106D3
:1008D00018BF52EA43067FF4C5AE50EA41047FF4E4
:1008E0000DAF52EA43057FF4EBAE12E74FEA410247
:1008F000B2F1E04324BFB3F5001CDCF1FE5C0DD97E
:1009000001F0004C4FEAC0024CEA5070B2F1004FC7
:1009100040EB830008BF20F00100704711F0804FCA
:1009200021D113F13872BCBF01F00040704741F48F
:1009300080114FEA5252C2F11802C2F1200C10FA93
:100940000CF320FA02F018BF40F001004FEAC12377
:100950004FEAD32303FA0CFC40EA0C0023FA02F31B
:100960004FEA4303CCE77FEA625307D150EA0133F1
:100970001EBF4FF0FE4040F44000704701F00040C1
:1009800040F0FE4040F40000704700BF80F000409F
:1009900002E000BF81F0004142001FBF5FEA410357
:1009A00092EA030F7FEA226C7FEA236C6AD04FEA57
:1009B0001262D2EB1363C1BFD2184140484041409C
:1009C000B8BF5B42192B88BF704710F0004F40F44E
:1009D000000020F07F4018BF404211F0004F41F46A
:1009E000000121F07F4118BF494292EA030F3FD036
:1009F000A2F1010241FA03FC10EB0C00C3F1200349
:100A000001FA03F100F0004302D5494260EB4000D7
:100A1000B0F5000F13D3B0F1807F06D340084FEA42
:100A2000310102F10102FE2A51D2B1F1004F40EB37
:100A3000C25008BF20F0010040EA0300704749009F
:100A400040EB0000013A28BFB0F5000FEDD2B0FA3C
:100A500080FCACF1080CB2EB0C0200FA0CF0AABF5F
:100A600000EBC25052421843BCBFD04018437047FD
:100A700092F0000F81F4000106BF80F40000013203
:100A8000013BB5E74FEA41037FEA226C18BF7FEADA
:100A9000236C21D092EA030F04D092F0000F08BF1C
:100AA0000846704790EA010F1CBF0020704712F003
:100AB0007F4F04D1400028BF40F00040704712F142
:100AC00000723CBF00F50000704700F0004343F0A7
:100AD000FE4040F4000070477FEA226216BF0846DD
:100AE0007FEA23630146420206BF5FEA412390EAA0
:100AF000010F40F4800070474FF0000304E000BF96
:100B000010F0004348BF40425FEA000C08BF704746
:100B100043F0964301464FF000001CE050EA01020A
:100B200008BF70474FF000030AE000BF50EA01021F
:100B300008BF704711F0004302D5404261EB41010C
:100B40005FEA010C02BF84460146002043F0B64331
:100B500008BFA3F18053A3F50003BCFA8CF2083A56
:100B6000A3EBC25310DB01FA02FC634400FA02FC5F
:100B7000C2F12002BCF1004F20FA02F243EB020066
:100B800008BF20F00100704702F1200201FA02FCC8
:100B9000C2F1200250EA4C0021FA02F243EB0200BB
:100BA00008BF20EADC7070474FF0FF0C1CEAD052FF
:100BB0001EBF1CEAD15392EA0C0F93EA0C0F6FD0C0
:100BC0001A4480EA010C400218BF5FEA41211ED09E
:100BD0004FF0006343EA501043EA5111A0FB01318A
:100BE0000CF00040B1F5000F3EBF490041EAD3715F
:100BF0005B0040EA010062F17F02FD2A1DD8B3F1DB
:100C0000004F40EBC25008BF20F00100704790F049
:100C1000000F0CF0004C08BF49024CEA502040EA9B
:100C200051207F3AC2BFD2F1FF0340EAC250704761
:100C300040F400004FF00003013A5DDC12F1190F9F
:100C4000DCBF00F000407047C2F10002410021FA11
:100C500002F1C2F1200200FA02FC5FEA310040F129
:100C6000000053EA4C0308BF20EADC70704792F0A2
:100C7000000F00F0004C02BF400010F4000F013ADA
:100C8000F9D040EA0C0093F0000F01F0004C02BFD5
:100C9000490011F4000F013BF9D041EA0C018FE744
:100CA0000CEAD15392EA0C0F18BF93EA0C0F0AD04A
:100CB00030F0004C18BF31F0004CD8D180EA010070
:100CC00000F00040704790F0000F17BF90F0004F09
:100CD000084691F0000F91F0004F14D092EA0C0FEB
:100CE00001D142020FD193EA0C0F03D14B0218BF7E
:100CF000084608D180EA010000F0004040F0FE40C4
:100D000040F40000704740F0FE4040F4400070475F
:100D10004FF0FF0C1CEAD0521EBF1CEAD15392EADE
:100D20000C0F93EA0C0F69D0A2EB030280EA010CCE
:100D300049024FEA402037D04FF0805343EA111167
:100D400043EA10130CF000408B4238BF5B0042F1C5
:100D50007D024FF4000C8B4224BF5B1A40EA0C006A
:100D6000B3EB510F24BFA3EB510340EA5C00B3EB9C
:100D7000910F24BFA3EB910340EA9C00B3EBD10F8A
:100D800024BFA3EBD10340EADC001B0118BF5FEADC
:100D90001C1CE0D1FD2A3FF650AF8B4240EBC25005
:100DA00008BF20F0010070470CF0004C4CEA5020C6
:100DB0007F32C2BFD2F1FF0340EAC250704740F415
:100DC00000004FF00003013A37E792F0000F00F007
:100DD000004C02BF400010F4000F013AF9D040EA85
:100DE0000C0093F0000F01F0004C02BF490011F419
:100DF000000F013BF9D041EA0C0195E70CEAD15311
:100E000092EA0C0F08D142027FF47DAF93EA0C0FF7
:100E10007FF470AF084676E793EA0C0F04D14B02DB
:100E20003FF44CAF08466EE730F0004C18BF31F08D
:100E3000004CCAD130F000427FF45CAF31F0004387
:100E40007FF43CAF5FE700BF4FF0FF3C06E000BF20
:100E50004FF0010C02E000BF4FF0010C4DF804CD43
:100E60004FEA40024FEA41037FEA226C18BF7FEA53
:100E7000236C11D001B052EA530C18BF90EA010F55
:100E800058BFB2EB030088BFC81738BF6FEAE170E4
:100E900018BF40F0010070477FEA226C02D15FEA80
:100EA000402C05D17FEA236CE4D15FEA412CE1D0EC
:100EB0005DF8040B704700BF844608466146FFE7B3
:100EC0000FB5FFF7C9FF002848BF10F1000F0FBD95
:100ED0004DF808EDFFF7F4FF0CBF012000205DF88E
:100EE00008FB00BF4DF808EDFFF7EAFF34BF012013
:100EF00000205DF808FB00BF4DF808EDFFF7E0FFAC
:100F000094BF012000205DF808FB00BF4DF808EDFC
:100F1000FFF7D2FF94BF012000205DF808FB00BF5F
:100F20004DF808EDFFF7C8FF34BF012000205DF841
:100F300008FB00BF42000ED2B2F1FE4F0BD34FF0C0
:100F40009E03B3EB126209D44FEA002343F000433F
:100F500023FA02F070474FF00000704712F1610F62
:100F600001D1420202D14FF0FF3070474FF0000034
:100F7000704700BF80B582B000AF7860084B1B7827
:100F8000002B02D1786800F00DF8054B1B78013377
:100F9000DAB2034B1A707B6818460837BD4680BD2D
:100FA0002800002080B483B000AF7860244B122268
:100FB0001A60244B1B68234A43F48033136000BF3C
:100FC000204B1B6803F40033002B0CBF01230023CC
:100FD000DBB2002BF4D11B4B1B681A4A43F0806331
:100FE0001360184B5B68174A43F480335360154B0A
:100FF0005B68144A43F4E0135360124B5B68114A78
:1010000043F4806353600F4B1B680E4A43F08073B8
:10101000136000BF0B4B1B6803F00073002B0CBF69
:1010200001230023DBB2002BF4D1064B5B68054A99
:1010300043F00203536000BF0C37BD4680BC7047CD
:10104000002002400010024080B483B000AF7860FE
:101050000A4B1B78002B05D1094B00229A61084BE3
:101060000022DA61054B1B780133DAB2034B1A70A8
:101070007B6818460C37BD4680BC704729000020AD
:101080000010024080B483B000AF7860054B9B69CC
:10109000044A43F00403936100BF0C37BD4680BC93
:1010A000704700BF0010024080B483B000AF78608A
:1010B000054B9B69044A43F00803936100BF0C375A
:1010C000BD4680BC704700BF0010024080B483B0B2
:1010D00000AF7860054B9B69044A43F010039361AD
:1010E00000BF0C37BD4680BC704700BF00100240F7
:1010F00080B483B000AF7860054B9B69044A43F02D
:101100000103936100BF0C37BD4680BC704700BF30
:101110000010024080B483B000AF78607B6818464E
:101120000C37BD4680BC704780B582B000AF3B46EF
:101130001846FFF789FF3B461846FFF7B5FF3B46C9
:101140001846FFF79FFF104800F0AAFF78600F498C
:101150007868FFF7D1FE0346002B06D00C4800F05C
:1011600031FB0C4800F044FB05E00A4800F02AFB84
:10117000074800F03DFB084800F0E0FC41F28831F0
:10118000064800F056FDDEE7F80000200000F041C0
:101190009C0000208C000020CC000020C400002017
:1011A00080B582B000AF78607B681033184600F0DD
:1011B0001FFC7B68184600F01BFC7B68184608374C
:1011C000BD4680BD80B582B000AF78607B681846B0
:1011D00000F024FE7B6818460837BD4680BD80B508
:1011E00082B000AF78607B682033184600F000FCC6
:1011F0007B681033184600F0FBFB7B68184600F054
:10120000F7FB7B6818460837BD4680BD80B582B0C5
:1012100000AF786039607B68012B5FD13B684FF687
:10122000FF7293425AD1032305224049404800F0FF
:10123000E3F8032301223F493F4800F0DDF80B2388
:1012400006223A493D4800F0D7F8032304223749E3
:101250003B4800F0D1F8032300223449394800F01C
:10126000CBF80B2300223349374800F0C5F803239D
:1012700001222E49354800F0BFF8032303222B49F1
:10128000334800F0B9F82A49324800F08BF82C496D
:10129000314800F087F8314B1B68314A1268194613
:1012A000304800F0C5FD304B1B6819462F4800F050
:1012B00021FD2F4800F07DFC2E4800F0EDFB0323BC
:1012C0000A221A492C4800F097F8082219492B489D
:1012D00000F0B4FA28492A4800F03EFE7B68002B53
:1012E0001FD13B684FF6FF7293421AD1244800F099
:1012F00023FF2148FFF754FF1E48FFF763FF1B48F9
:1013000000F08CFD174800F01DFE114800F070FB46
:101310000E4800F06DFB0A48FFF761FF0448FFF735
:101320005EFF00BF0837BD4680BD00BF000801401A
:101330002C000020000C01403C0000204C0000204C
:101340005C0000206C0000207C0000208C0000204D
:101350009C000020AC000020B40000200000002011
:1013600008000020BC00002004000020C000002075
:10137000C4000020CC000020D8000020E80000209D
:10138000F800002080B500AF4FF6FF710120FFF795
:101390003DFF80BD80B500AF4FF6FF710020FFF725
:1013A00035FF80BD80B582B000AF786039607B6862
:1013B0003A681A60786800F005F87B6818460837C4
:1013C000BD4680BD80B582B000AF78607B681B6889
:1013D000184600F00DFA7B681B681033184600F0C1
:1013E00007FA7B681B682033184600F018FA00BF24
:1013F0000837BD4680BD000080B588B000AFF860FA
:10140000B9603B601346FB71FB68BA681A60FB6801
:10141000FA791A71FB683A689A6007F11C0318465A
:10142000FFF712FEBB688F4A934240F086803B680C
:10143000032B37D18C4B1B78002B0CD107F11C03ED
:101440001846FFF71FFEFB681B6800221A60FB6846
:101450001B6800225A60844B1B780133DAB2824B3E
:101460001A70FB681B79072B0CD8FB681B6819687E
:10147000FB681B799B0003229A40FB681B680A43A8
:101480001A608CE1FB681B685968FB681B7903F1E3
:101490008043083B9B0003229A40FB681B680A4379
:1014A0005A607CE13B680B2B40F079816F4B1B78D5
:1014B000002B0AD107F11C031846FFF719FE6B4BEE
:1014C0001B780133DAB2694B1A70674B1B78002B1B
:1014D0000CD107F11C031846FFF7D4FDFB681B680D
:1014E00000221A60FB681B6800225A605E4B1B7862
:1014F0000133DAB25C4B1A70FB681B79072B0CD8EE
:10150000FB681B681968FB681B799B000B229A40DB
:10151000FB681B680A431A6041E1FB681B68596855
:10152000FB681B7903F18043083B9B000B229A4028
:10153000FB681B680A435A6031E1BB684C4A93421E
:1015400040F09A803B68032B37D14A4B1B78002B25
:101550000CD107F11C031846FFF7A6FDFB681B68BA
:1015600000221A60FB681B6800225A60414B1B78FE
:101570000133DAB23F4B1A70FB681B79072B0CD88A
:10158000FB681B681968FB681B799B0003229A4063
:10159000FB681B680A431A6001E1FB681B68596815
:1015A000FB681B7903F18043083B9B0003229A40B0
:1015B000FB681B680A435A60F1E03B680B2B40F064
:1015C000EE802A4B1B78002B0AD107F11C0318462A
:1015D000FFF78EFD254B1B780133DAB2234B1A70CF
:1015E000244B1B78002B16D107F118031846FFF780
:1015F0002BFD07F118031846FFF756FDFB681B6823
:1016000000221A60FB681B6800225A6007F1180369
:101610001846FFF77FFD174B1B780133DAB2154BE5
:101620001A70FB681B79072B0CD8FB681B681968BC
:10163000FB681B799B000B229A40FB681B680A43DE
:101640001A60ACE0FB681B685968FB681B7903F102
:101650008043083B9B000B229A40FB681B680A43AF
:101660005A609CE0000801400C0100200F0100209E
:10167000000C01400D010020BB684F4A934240F02E
:101680008E803B68032B37D14C4B1B78002B0CD141
:1016900007F11C031846FFF719FDFB681B680022C1
:1016A0001A60FB681B6800225A60444B1B780133A8
:1016B000DAB2424B1A70FB681B79072B0CD8FB6817
:1016C0001B681968FB681B799B0003229A40FB6822
:1016D0001B680A431A6062E0FB681B685968FB6874
:1016E0001B7903F18043083B9B0003229A40FB686F
:1016F0001B680A435A6052E03B680B2B4FD1304BBA
:101700001B78002B0AD107F11C031846FFF7F0FCE9
:101710002B4B1B780133DAB2294B1A70274B1B78FD
:10172000002B16D107F114031846FFF78DFC07F1C3
:1017300014031846FFF7CAFCFB681B6800221A60F6
:10174000FB681B6800225A6007F114031846FFF774
:10175000E1FC1A4B1B780133DAB2184B1A70FB68A4
:101760001B79072B0CD8FB681B681968FB681B7971
:101770009B000B229A40FB681B680A431A600EE02C
:10178000FB681B685968FB681B7903F18043083BC1
:101790009B000B229A40FB681B680A435A60F8685A
:1017A00000F026F807F11C031846FFF7B3FCFB68AE
:1017B00018462037BD4680BD001001400E010020B4
:1017C0000F01002080B483B000AF78607B681B6895
:1017D000DA687B681B79194601238B4019467B68C0
:1017E0001B680A43DA6000BF0C37BD4680BC7047F7
:1017F00080B483B000AF78607B681B68DA687B6870
:101800001B79194601238B40DB4319467B681B6813
:101810000A40DA6000BF0C37BD4680BC704780B517
:1018200082B000AF78607B680C330021184600F06E
:101830005DFB00BF0837BD4680BD000080B586B0A7
:1018400000AFF860B9601346FB71FB68BA681A60B4
:10185000FB68FA791A7107F114031846FFF7F4FBD5
:10186000BB685D4A934236D15C4B1B78002B0CD190
:1018700007F114031846FFF705FCFB681B680022FC
:101880001A60FB681B6800225A60544B1B780133B6
:10189000DAB2524B1A70FB681B79072B0CD8FB6825
:1018A0001B681968FB681B799B0004229A40FB683F
:1018B0001B680A431A600EE0FB681B685968FB68E6
:1018C0001B7903F18043083B9B0004229A40FB688C
:1018D0001B680A435A60BB68414A934236D1414B68
:1018E0001B78002B0CD107F114031846FFF7DCFB23
:1018F000FB681B6800221A60FB681B6800225A60A4
:10190000384B1B780133DAB2364B1A70FB681B79FF
:10191000072B0CD8FB681B681968FB681B799B00B8
:1019200004229A40FB681B680A431A600EE0FB68B9
:101930001B685968FB681B7903F18043083B9B00D7
:1019400004229A40FB681B680A435A60BB68264A17
:10195000934236D1254B1B78002B0CD107F1140391
:101960001846FFF7B3FBFB681B6800221A60FB6890
:101970001B6800225A601D4B1B780133DAB21B4BE7
:101980001A70FB681B79072B0CD8FB681B68196859
:10199000FB681B799B0004229A40FB681B680A4382
:1019A0001A600EE0FB681B685968FB681B7903F13D
:1019B0008043083B9B0004229A40FB681B680A4353
:1019C0005A6007F114031846FFF7A4FBFB6818469A
:1019D0001837BD4680BD00BF000801400C01002043
:1019E000000C01400D010020001001400E010020FC
:1019F00080B582B000AF78607868FFF7F9FE7B6849
:101A00000C33184600F09EFA7B6818460837BD462E
:101A100080BD000000000000000000000000000089
:101A2000074B19680868B0E8F00F80F30988BFF326
:101A30006F8F4FF0000080F311884EF00D0E70474D
:101A40001001002000BF00BF0000000000000000E7
:101A5000EFF30980BFF36F8F0D4B1A6820E9F00F89
:101A600010602DE908404FF0BF0080F3118800F0AE
:101A7000FBF84FF0000080F31188BDE808401968BA
:101A80000868B0E8F00F80F30988BFF36F8F7047E4
:101A90001001002000BF00BF80B586B000AF7860A5
:101AA0007B680433184600F084F807F108000B2324
:101AB00002220649FFF7A0FC07F108031846FFF7CA
:101AC00097FF7B6818461837BD4680BD0008014067
:101AD00080B584B000AF78600B46FB70FB78B42B08
:101AE00001D9B423FB70FB781846FFF709F80346C9
:101AF0000F491846FFF70CF903464FF07E51184680
:101B0000FEF74AFF0346FB600A49F868FFF700F951
:101B1000034609491846FFF747F80346BB607B6850
:101B2000B968184600F040F900BF1037BD4680BDC7
:101B3000000034430000A0410000C84280B584B0DA
:101B400000AF78600023FB600FE0FB68DBB2194652
:101B50007868FFF7BDFF7B68043342F210711846C6
:101B600000F067F8FB680133FB60FB68B32BECDD2A
:101B7000B423BB600FE0BB68DBB219467868FFF79F
:101B8000A7FF7B68043342F21071184600F051F849
:101B9000BB68013BBB60BB68002BECDC00BF00BF37
:101BA0001037BD4680BD80B400AF00BFBD4680BCCD
:101BB000704780B582B000AF7860786800F006F8B2
:101BC0007B6818460837BD4680BD000080B483B0EE
:101BD00000AF78600A4B00221A60094B06221A6097
:101BE000074B40F2E7325A60054B1B68044A43F04A
:101BF0000103136000BF0C37BD4680BC704700BFB7
:101C000010E000E080B483B000AF78607B681B68B0
:101C1000002B14BF01230023DBB2002B04D07B6810
:101C20001B685A1E7B681A6000BF0C37BD4680BC1B
:101C3000704780B582B000AF786039607B683A68E1
:101C40001A6002E07868FFF7DDFF7B681B68002BF5
:101C500014BF01230023DBB2002BF3D100BF00BF70
:101C60000837BD4680BD000080B485B000AF1C4B76
:101C70001B68002B03D01B4B01221A602BE0194B71
:101C800000221A60184B1B687B607B68B3FA83F3F1
:101C9000FB70FB78C3F11F03FB60FA6813469B00DF
:101CA00013449B00114A1344BB60BB685B685A68CD
:101CB000BB685A60BB685A68BB6808339A4203D154
:101CC000BB68DA68BB685A60BB685B68DB68084A57
:101CD0001360074B1B6800BF1437BD4680BC7047BC
:101CE00094010020900100208C01002014010020AC
:101CF0001001002080B582B000AF786039600C4AD6
:101D00003B6813600B4B1B78002B05D1084B1B68FD
:101D10001946786800F010F8064B1B780133DAB2E8
:101D2000044B1A707B6818460837BD4680BD00BF5B
:101D30009C0100209801002080B584B000AF78603D
:101D4000396007F10C031846FFF714F9154BDB69EE
:101D5000144A43F00103D3614FF0804300221A601C
:101D60004FF0804347229A624FF080423B68013B2C
:101D7000D3624FF08043DB694FF0804243F0680349
:101D8000D3614FF080434FF480721A624FF080436A
:101D90001B684FF0804243F00103136000BF10370F
:101DA000BD4680BD0010024090B585B000AF7860A0
:101DB00039604FF000013868FFF794F80346002BB4
:101DC00003D04FF000033B6008E012493868FFF78A
:101DD000A7F80346002B01D00E4B3B600E4B1B684F
:101DE0001846FEF789FE034639681846FEF7DCFE02
:101DF000034608491846FEF78BFF0346FB604FF089
:101E00008044F868FFF796F80346E36300BF143791
:101E1000BD4690BD0000C8429C01002080B483B044
:101E200000AF78607B6818460C37BD4680BC7047B1
:101E300080B584B000AFF860B9607A60FB687A68FA
:101E40001A600C4ABB6813600B4B1B78002B05D142
:101E5000084B1B681946F86800F010F8064B1B7811
:101E60000133DAB2044B1A70FB6818461037BD46CE
:101E700080BD00BFA4010020A001002080B584B077
:101E800000AF7860396007F10C031846FFF772F86D
:101E9000144BDB69134A43F00203D361124B002257
:101EA0001A60114B47229A620F4A3B68013BD3628A
:101EB0000D4B9B690C4A43F0680393610A4BDB6945
:101EC000094A43F06803D361074B40F201121A62DA
:101ED000054B1B68044A43F00103136000BF103731
:101EE000BD4680BD001002400004004080B485B0B3
:101EF00000AF786039607B683A681A607B681B685D
:101F0000642B02D97B6864221A607B681B680A4ACA
:101F1000126802FB03F3094AA2FB03235B09FB607F
:101F2000074AFB685363064AFB68D36300BF143754
:101F3000BD4680BC704700BFA40100201F85EB5147
:101F40000004004080B483B000AF78607B6818461E
:101F50000C37BD4680BC704780B582B000AF78605A
:101F600039607B6804331846FFF76EF87B680C33E2
:101F70001846FFF71EFE786800F008F8786800F051
:101F800017F87B6818460837BD4680BD80B582B01B
:101F900000AF78607B681B681846FFF729FC7B68F8
:101FA00004331846FFF7A4F800BF0837BD4680BDCC
:101FB00080B584B000AF786007F10C031846FEF7D7
:101FC000D9FF0D4BDB690C4A43F00403D3610B4B83
:101FD00000221A60094B47229A62084B4FF6FF72A3
:101FE000DA62064B1B68054A43F00103136000BF29
:101FF0001037BD4680BD00BF001002400008004001
:1020000080B400AF154B1B6903F00403002B14BF11
:1020100001230023DBB2002B1BD0114B1B78002BBC
:1020200007D10E4BDB6B0F4A13600D4B01221A7068
:1020300009E00A4BDB6B0C4A1360094B00221A7053
:102040000A4B01221A70054B1B69044A23F0040352
:10205000136100BFBD4680BC704700BF0008004050
:10206000AD010020B0010020B4010020AC0100202F
:1020700080B582B000AF78607B681B681846FFF7B8
:10208000A1FB7B680C330A211846FFF7D2FD7B6861
:102090001B681846FFF7ACFB00BF0837BD4680BD84
:1020A00080B582B000AF78607868FFF7E1FF1E4B23
:1020B00000221A7000BF1C4B1B78002BFBD01B4B5F
:1020C0001A681B4B1B689A4220D9184B1A68184B88
:1020D0001B68D31A1846FEF77DF911A3D3E9002334
:1020E000FEF7F2F902460B46104619464FF0000281
:1020F0004FF08043FEF712FB02460B46104619468E
:10210000FEF7F4FB03460B4A136003E0094B4FF064
:1021100000021A60074B1B6818460837BD4680BD91
:10212000006F8104C58FA13FAC010020B4010020E5
:10213000B0010020A801002080B582B000AF786017
:102140007B6808331846FFF769FE7B68043318463E
:10215000FEF7E0FF7B6818460837BD4680BD0000EB
:10216000FFF721FD0B480C490C4A002302E0D4582C
:10217000C4500433C4188C42F9D3094A094C0023D3
:1021800001E013600432A242FBD300F00FF8FEF727
:10219000CBFF7047000000200C0000201C2200082C
:1021A0000C000020B8010020FEE7000070B50026FA
:1021B0000C4D0D4C641BA410A64209D100F01AF876
:1021C00000260A4D0A4C641BA410A64205D170BD1E
:1021D00055F8043B98470136EEE755F8043B98471D
:1021E0000136F2E70C2200080C2200080C2200083D
:1021F00014220008F8B500BFF8BC08BC9E46704722
:0C220000F8B500BFF8BC08BC9E46704753
:08220C003501000885130008EC
:082214001101000895130008F8
:0C221C0050C30000204E00003200000003
:04000005080021616D
:00000001FF
